:020000040800F2
:1000000030070020310200087F19000801140008A1
:100010007D190008A5060008E32000080000000084
:10002000000000000000000000000000731E000837
:10003000A706000800000000711E0008751E0008D9
:100040004B0200084B0200084B0200084B0200085C
:100050004B0200084B0200084B0200084B0200084C
:100060004B0200084B0200084B0200084B0200083C
:100070004B0200084B0200084B0200084B0200082C
:100080004B0200084B0200084B0200084B0200081C
:100090004B0200084B0200084B0200084B0200080C
:1000A0004B0200084B0200084B0200084B020008FC
:1000B0004B0200084B0200084B0200084B020008EC
:1000C0004B0200084B0200084B0200084B020008DC
:1000D0004B0200084B0200084B0200084B020008CC
:1000E0004B0200084B0200084B0200084B020008BC
:1000F0004B0200084B0200084B0200084B020008AC
:100100004B0200084B0200084B0200084B0200089B
:100110004B0200084B0200084B0200084B0200088B
:100120004B0200084B0200084B0200084B0200087B
:100130004B0200084B0200084B0200084B0200086B
:100140004B0200084B0200084B0200084B0200085B
:100150004B0200084B0200084B0200084B0200084B
:100160004B0200084B0200084B0200084B0200083B
:100170004B0200084B0200084B0200080000000080
:100180004B0200084B02000800F002F800F041F8B2
:100190000AA090E8000C82448344AAF10107DA45E2
:1001A00001D100F036F8AFF2090EBAE80F0013F0F3
:1001B000010F18BFFB1A43F001031847782600000F
:1001C00098260000103A24BF78C878C1FAD85207A0
:1001D00024BF30C830C144BF04680C6070470000C1
:1001E0000023002400250026103A28BF78C1FBD840
:1001F000520728BF30C148BF0B607047752900F017
:10020000FD80002070471FB502F00AF81FBD10B531
:1002100010BD00F0F6F91146FFF7F5FF01F072FF8F
:1002200000F014FA03B4FFF7F2FF03BC00F01CFA6D
:100230000948804709480047FEE7FEE7FEE7FEE77A
:10024000FEE7FEE7FEE7FEE7FEE7FEE704480549B6
:10025000054A064B70470000051F00088901000889
:100260003001002030070020300300203003002040
:1002700053EA020C00F069802DE9F04B4FF00006C4
:10028000002B1FBFB3FA83F503FA05F424FA05F631
:100290005E4012BF1643B2FA82F502FA05F4C5F1C8
:1002A00020051EBF22FA05FC44EA0C04203556EA5C
:1002B000044C4FEA144418BF641C4FF000084FF080
:1002C0000009904271EB030C39D3002919BFB1FA30
:1002D00081F701FA07F6B0FA80F700FA07F6C7F1DE
:1002E00020071EBF20FA07FC46EA0C062037B6FBA3
:1002F000F4FCA7EB0507103F07F01F0BCBF120061E
:100300000CFA0BFB2CFA06F644BFB3460026202F4E
:10031000A4BF5E464FF0000B5BEA060C08BF4FF02F
:10032000010B19EB0B09ABFB027C48EB0608C01B69
:1003300006FB02CC0BFB03CC71EB0C01C1E70B46B7
:10034000024641464846BDE8F08B13B54FF0000029
:100350004FF00001AFF30080BDE81C407047000083
:100360000FB41CB50C0007AA009001D02044401E19
:10037000074B7B4469460190069800F022F9002C57
:1003800003D06946002000F02FF91CBC5DF814FB77
:100390007D0200002DE9F0410E4604460020206257
:1003A0002046E168884730B3252805D0D4E90121EB
:1003B0009047206A401CF2E7E16820460027884702
:1003C000050018D0A5F14100192802D820354FF4B6
:1003D00000673246294620462760FFF70FFF40B1ED
:1003E000012804D0F61D26F007060836D8E7361D8A
:1003F000D6E72846DAE7206ABDE8F0812DE9F0412A
:100400000646002410687529314616A510D0AFF3B2
:100410000080002802DA404213A507E031688A070D
:1004200001D512A502E0490704D511A5012401E078
:10043000AFF3008000210A2206F1240709E0B0FB97
:10044000F2FCB0FBF2F302FB1C003030785418468B
:10045000491C0028F3D123462A463046BDE8F04126
:1004600000F051B8000000002D0000002B0000003B
:100470002000000010B5431C02E010F8011B71B110
:100480008107FAD14FF0013202C88C1A8C4314EA6A
:10049000C211F9D0C01A0A0603D0C01E10BDC01A7E
:1004A00010BD0A0401D0801E10BD0902FCD0401E00
:1004B00010BD4FF0000200B5134694469646203911
:1004C00022BFA0E80C50A0E80C50B1F12001BFF40D
:1004D000F7AF090728BFA0E80C5048BF0CC05DF873
:1004E00004EB890028BF40F8042B08BF704748BFC1
:1004F00020F8022B11F0804F18BF00F8012B704735
:100500007047704770472DE9F0470D46994692466F
:10051000044600F124080168880604D5E06921F04A
:100520001001216000E00120A84201DD471B00E02E
:100530000027A1697A1902EB0900081AA061207846
:10054000C00602D42046AFF30080002608E0D4E9BC
:1005500001211AF806009047206A401C761C206290
:100560004E45F4DB2078C0060AD52046AFF3008064
:1005700006E0D4E9012130209047206A401C206227
:10058000381EA7F10107F4DC07E0D4E9012118F8CF
:1005900005009047206A401C2062281EA5F1010535
:1005A000F3DC2046AFF300802078000602D502205D
:1005B000BDE8F0870120FBE701694A1C0261087869
:1005C000704700B58FB0CDE9013100210591054993
:1005D0007944CDE9031011466846FFF7DBFE0FB002
:1005E00000BD0000E5FFFFFF0A6802F8010B0A608A
:1005F0007047D1E900239A4202D2531C0B6010705D
:100600007047754600F02CF8AE4605006946534623
:1006100020F00700854618B020B5FFF717FEBDE8AB
:1006200020404FF000064FF000074FF000084FF059
:10063000000B21F00701AC46ACE8C009ACE8C009EA
:10064000ACE8C009ACE8C0098D46704710B5044657
:10065000AFF300802046BDE81040FFF7E3BD000087
:1006600000487047D000002001491820ABBEFEE7CB
:10067000260002007047000010B50121074800F075
:100680001FF9074C012802D1642000F00FF8204622
:10069000BDE81040012100F018B900000018024028
:1006A00000100240FEE7704772B6FEE770B50446E0
:1006B00000F018F90546601C02D004480078044494
:1006C00000F010F9401BA042FAD370BD24000020B6
:1006D0002DE9F84FDFF8BCA10022012503264FF0D9
:1006E0000F090AF1040BAAF1040E00BF0B6805FA0A
:1006F00002F42340A34270D10F7907F00307012FC2
:1007000001D0022F16D187684FEA420806FA08FC8A
:1007100027EA0C07D1F80CC00CFA08FC4CEA070CCD
:10072000C0F808C04768A7430C79C4F3001494408C
:100730003C4344600C79E443A4070AD0C4684FEA00
:10074000420C06FA0CF7BC438F6807FA0CF72743F4
:10075000C7600C7904F00304022C12D1D40800EB1A
:10076000840CDCF820405707FF0E09FA07F824EA4A
:100770000804D1F8108008FA07F848EA0408CCF811
:10078000208004684FEA420C06FA0CF7BC430F794C
:1007900007F0030707FA0CF7274307604C6814F4C7
:1007A000403F70D03C4C276847F48047276024685E
:1007B00022F0030704F480440094384C07EB040C47
:1007C000DCF8084897074FEA177809FA08F7BC439E
:1007D000334FB84202D1002724E054E0314FB842F1
:1007E00001D101271EE0304FB84201D1022719E0A4
:1007F0002E4FB84201D1032714E02D4FB84201D14A
:1008000004270FE02B4FB84201D105270AE02A4FF9
:10081000B84201D1062705E0284FB84201D1072789
:1008200000E0082707FA08F72743CCF80878DAF839
:1008300000405746D1F804C09C435FEACC2C00D559
:100840001C433C60DBF800405F46D1F804C09C4389
:100850005FEA8C2C00D51C433C60DEF800407746F4
:10086000D1F804C09C435FEA8C3C00D51C433C603B
:10087000084F083F3C68D1F804C09C435FEACC3C79
:1008800000D51C433C60521C102AFFF42FAFBDE87A
:10089000F88F0000083C014044380240003001401D
:1008A000000002400004024000080240000C024028
:1008B000001002400014024000180240001C0240D8
:1008C0000069084000D001207047426921EA020314
:1008D0000A4043EA0241816170470AB18161704771
:1008E0000904FBE7014880687047000024000020ED
:1008F00070B5040025D094F83D00002520B984F897
:100900003C50204600F04EF9242084F83D00206839
:10091000016821F0010101602068016841F4004193
:1009200001602068016821F40041016000F094FA40
:100930004D4A6168914201D84C4900E04C498842D7
:1009400001D2012070BD4B492368B0FBF1F15E6814
:1009500026F03F060E435E606368934206D94FF46B
:10096000967359434FF47A73B1FBF3F12368491C32
:100970001E6A26F03F06314319626168914210D821
:100980004900401EB0FBF1F2521CC2F30B02042AD4
:1009900001D2042022E0B0FBF1F0401CC0F30B00B8
:1009A0001CE0A268F2B301EBC10303EB0116431E86
:1009B000B3FBF6F35B1C43F480431B0549D092B3B1
:1009C00001EBC10202EB0111401EB0FBF1F0401C33
:1009D000C0F30B0040F4804040F400402168CA6935
:1009E0004CF6FF739A431043C861D4E907100143E2
:1009F0002068026822F0C00211430160D4E90301BB
:100A000001432068826848F2FF339A4311438160B2
:100A1000D4E9050108432168CA6822F0FF021043A7
:100A2000C86001E00EE016E02068016841F00101B5
:100A300001602564202084F83D00256384F83E5041
:100A4000002070BD01EB4106431EB3FBF6F35B1CB7
:100A5000B3E70120C2E701EB4101401EB0FBF1F01A
:100A6000401CC0F30B00B7E7A086010080841E0085
:100A700000093D0040420F002DE9F84F1F46904607
:100A80008A460446DDF82890FFF72CFF054694F8C7
:100A90003D0020287FD1192301224049204600959E
:100AA00000F040FD002876D194F83C00012872D077
:100AB000012084F83C0020680168C90703D101685F
:100AC00041F0010101602068016821F400610160CA
:100AD000212084F83D00102084F83E000026266482
:100AE000C4F824806785608D20852D48E0622B4600
:100AF0004A465146204600F09BFC90B92068416967
:100B00008069009036E02A464946204600F0B0FD54
:100B100050B1206C042804D12068016841F40071B0
:100B200001600120BDE8F88F606A216800780861E3
:100B3000606A401C6062618D491E6185218D491E7D
:100B400089B2218522685369DB435B070BD451B11D
:100B500000781061606A401C6062608D401E608594
:100B6000208D401E20852A464946204600F0AEFCD6
:100B70000028CED1208D0028C5D154F83D0B016846
:100B800041F400710160202004F81E09E6776677C1
:100B90000020C7E7FFE70220C4E7000002001000C2
:100BA0000000FFFF10B586B0044614216846FFF729
:100BB00080FC13492068884220D112480021026835
:100BC00042F002020260006800F002000590C020BE
:100BD00000901220CDE9010103200390042004902D
:100BE00069460948FFF774FD06481030016841F472
:100BF00000110160006800F40010059006B010BDFF
:100C0000005400403038024000040240024881682D
:100C10000278114481607047240000200B4810B511
:100C2000016841F400710160016841F48061016074
:100C3000016841F480710160032000F061F80F2029
:100C400000F006F800F024F8002010BD003C02403F
:100C500070B50D4D04464FF47A712878B1FBF0F071
:100C60000A490968B1FBF0F000F0FEFA48B9102C0F
:100C700007D200222146501E00F022F800206C60AE
:100C800070BD012070BD0000240000203000002055
:100C90000A4808B5016841F480410160006800F429
:100CA000804000900548001F016841F080510160BC
:100CB000006800F08050009008BD000044380240F9
:100CC000F0B40E4B1B680C46C3F30223C3F10705B7
:100CD000042D00D90425191D072901D2002300E0A5
:100CE000DB1E012606FA05F1491E214099409E406F
:100CF000761E16403143F0BC01F0F4B90CED00E073
:100D0000064900F0070208684FF6FF03184040EA62
:100D10000220034A10430860704700000CED00E019
:100D20000000FA052DE9F0470E46050065D0DFF812
:100D30001481D8F80000F7B200F00700B04207D2E3
:100D400088F80070D8F8000000F00700B04254D1D5
:100D500028683D4C810712D5400703D5206840F430
:100D6000E05020602878000703D5206840F46040F8
:100D700020602068A96820F0F000084320602878EF
:100D8000C0072DD0304968680839012812D00228E0
:100D900013D0032811D00968890700292DDA2168AA
:100DA00021F0030101432160FFF79CFD814641F2E0
:100DB000883A0EE009688903EFE709688901ECE7E2
:100DC000FFF790FDA0EB0901514502D90320BDE8D2
:100DD000F0872068696800F00C00B0EB810FEFD15C
:100DE000D8F80010404601F00701B14207D907705A
:100DF000006800F00700B04201D00120E7E7287842
:100E0000400705D52068E96820F4E05008432060D9
:100E10002878000706D52068296920F4604040EA58
:100E2000C100206000F038F82168084AC1F30311BE
:100E3000515CC8400649086006480068FFF708FF93
:100E40000020C4E7003C0240083802401A2800088D
:100E50003000002028000020044805490068096887
:100E6000044AC1F38221515CC84070473000002021
:100E7000083802402A280008044805490068096823
:100E8000044AC1F34231515CC84070473000002031
:100E9000083802402A280008154810B5006810F0EC
:100EA0000C02144813D01449042A0FD0082A0ED17A
:100EB0000F4C241F2268236802F03F025B0207D513
:100EC0002068C0F38810A0FB010106E0084610BDB1
:100ED0002168C1F38811A1FB00010023FFF7C8F9C5
:100EE0002168C1F30141491C4900B0FBF1F010BD7C
:100EF000083802400024F40040787D012DE9F84FC5
:100F000004006ED02078DFF84C93C007A9F10405E7
:100F10004AD009F104000168C1F38101012908D018
:100F20000068C0F3810002280AD1D9F8000040020D
:100F300006D52868800337D560680028E1D033E003
:100F40006068B0F5803F10D0B0F5A02F286810D0B1
:100F500020F480302860286820F4802028606068B1
:100F6000A8B1FFF7BFFC06460DE0286840F48030CA
:100F7000F4E740F480202860F7E700BFFFF7B2FCF9
:100F8000801B642873D828688003F7D50CE0FFF72E
:100F9000A9FC064605E000BFFFF7A4FC801B6428FF
:100FA000F0D828688003F7D42078DFF8AC82800777
:100FB0004FF0000A3ED5A748001D016811F00C0F44
:100FC00008D00068C0F3810002280BD1D9F80000D6
:100FD000400207D42868800716D5E068012800D1B0
:100FE00012E033E1E068B8B10120C8F80000FFF773
:100FF00079FC064605E000BFFFF774FC801B022861
:10100000C0D828688007F7D52868216920F0F80043
:1010100040EAC10028600DE0C8F800A0FFF762FCBC
:10102000064604E0FFF75EFC801B02281FD82868F4
:101030008007F7D42078000722D5864F874861695A
:10104000703771B101210160FFF74CFC064604E0E6
:10105000FFF748FC801B022809D838688007F7D5BD
:101060000EE0C0F800A0FFF73DFC064605E082E078
:10107000FFF738FC801B02287DD838688007F7D43A
:101080002078400768D5DFF8CCB100270BF13C0B86
:10109000DBF80000C0000BD4DBF8001041F08051F9
:1010A000CBF80010DBF80000012700F08050009022
:1010B0006B4E3068C00510D4306840F480703060EA
:1010C000FFF710FC009005E0FFF70CFC0099401AB8
:1010D000022850D83068C005F6D55E4EA0686C3640
:1010E00001280FD00528306810D020F001003060B2
:1010F000306820F004003060A068B8B1FFF7F2FB60
:1011000000900FE0306840F00100F4E740F0040088
:101110003060F7E7FFF7E6FB0099411A41F28830AB
:10112000814266D830688007F4D50EE0FFF7DAFB1D
:10113000009007E0FFF7D6FB0099411A41F2883092
:10114000814256D830688007F4D42FB1DBF8001004
:1011500021F08051CBF80010A069C8B33D49091DAA
:101160000968C1F3810102294AD00228504607D0FC
:10117000C8F8600000E03CE0FFF7B4FB04463BE049
:101180004746C8F86000FFF7ADFB064605E000BF24
:10119000FFF7A8FB801B02282BD828688001F7D412
:1011A000D4E907010843A16A2E4A490802EB01412C
:1011B000626A41EA8211084394F82C1040EA016106
:1011C000C9F8001001203866FFF78CFB044606E0E2
:1011D0003EE000BFFFF786FB001B022809D8286805
:1011E0008001F7D534E000BFFFF77CFB001B02282D
:1011F00002D90320BDE8F88F28688001F4D427E0E5
:101200000128F7D0D9F80000E26900F4800191428A
:101210001CD1226A00F03F01914217D147F6C071FC
:10122000626A0140B1EB821F10D1A26A4FF0FF3316
:1012300000F4403103EB5202B1EB024F06D194F8B7
:101240002C1000F07060B0EB016F01D00120D1E7ED
:101250000020CFE70438024000004742800E47429A
:10126000007000400000FFFF10B5401EB0F1807F0D
:1012700001D3012010BD4FF0E02460610F21601701
:1012800000F030FF0020A06107202061002010BD89
:1012900070B5040004D094F84100002510B106E0B8
:1012A000012070BD84F84050204600F023F824202F
:1012B00084F841002068C16821F40051C1602046D3
:1012C00000F050FE2068016921F49041016120681E
:1012D000416921F02A0141612068C16841F400514F
:1012E000C1606564202084F8410084F84200656391
:1012F000002070BD10B586B0044614216846FFF783
:10130000D8F814492068884221D113480021026886
:1013100042F010020260006800F0100005900E48D4
:101320001438026842F001020260006800F0010017
:1013300005904FF4C06000900220CDE90101032028
:1013400003900720049069460448FFF7C1F906B0EE
:1013500010BD00000010014044380240000002406F
:101360002DE9F843044690F84100984616460D468C
:10137000202802D00220BDE8F88385B17EB100208C
:101380006064212084F84100FFF7ACFAA68481460E
:10139000E684A0682027B0F5805F02D003E001203A
:1013A000E9E7206910B12E4600250EE000260CE08A
:1013B0008021204600F05CFEA8B9C6B116F8010BEA
:1013C00021684860E08C401EE084E08C4B464FF082
:1013D0000002CDF800800028EAD14FF040012046FD
:1013E00000F046FE40B184F841700320C3E735F8B1
:1013F000020BC0F30800E3E784F841700020BAE76D
:10140000FEE701684A69D24352050FD46FF4806247
:101410004A61002140F8301F202242738173026923
:1014200042F00402026101730120704700207047FE
:10143000F8B50446C06A1E460D461746082807D070
:10144000012805D010F5803F02D0206B122804D16E
:101450002068016841F480710160134600224FF05A
:1014600001112046009600F05DF840B12068006848
:10147000C00502D54FF4007020640320F8BD206938
:10148000B0F5804F0ED00620216800EAD51040F05C
:10149000F000086133463A460B49204600F08AF8CE
:1014A00078B902E005F0FE0000E0E8B221680861CA
:1014B000054933463A46891F204600F07BF800284C
:1014C000DCD00120F8BD00000800010070B5164610
:1014D0000D4604461EE02046FFF793FF08B10120A9
:1014E00070BD681C16D0FFF7FDF9801BA84200D81C
:1014F00085B920684069C04340070BD5002044F8F7
:10150000300F20216173A073216941F02001216116
:101510002073E4E720684069C0434007DBD4002023
:1015200070BD00002DE9F047984617460D46044669
:10153000C1F30746DDF820902AE000BFB8F1FF3F75
:1015400026D0FFF7CFF9A0EB0901414502D8B8F149
:10155000000F1DD12068012E16D0806925EA0000F9
:101560000004000C12D00020B84211D1002044F831
:10157000300F20216173A073216941F020012161A6
:1015800020730120BDE8F0874069E7E70120EBE721
:101590002068012E0AD0806925EA00000004000CB2
:1015A00006D00020B842C9D00020EBE74069F3E73D
:1015B0000120F7E72DE9F047984616460D46044608
:1015C0004FF000094FF0200AC1F3074723E02068DD
:1015D0004069C043400515D42068016841F400719A
:1015E000016021686FF480604861C4F8309084F82D
:1015F0003DA084F83E90216C41F00401216484F800
:101600003C9021E0701C06D0FFF76CF9A0EB0800BD
:10161000B04203D816B1012F1FD021E02068012F5E
:1016200015D0806925EA00000004000C18D000BF26
:1016300044F8309F84F80DA084F80E90216941F0A1
:101640002001216184F80C900120BDE8F0874069F9
:1016500025EA00000004000CEAD12068406901E09E
:101660002068806925EA00000004000CAFD1ECE797
:1016700070B516460D4604461EE02046FFF7C1FE33
:1016800008B1012070BD681C16D0FFF72BF9801B34
:10169000A84200D885B920684069C04300060BD530
:1016A000002044F8300F20216173A073216941F0BC
:1016B000200121612073E4E720684069C0430006EF
:1016C000DBD4002070BD00002DE9F047DFF80C915D
:1016D00010214846FFF7F4F8DFF80481414D012757
:1016E000414C0026F0B1267008214846FFF7E8F883
:1016F00040B366700421C8464846FFF7E1F890B34E
:10170000A6701021C1464046FFF7DAF8DFF8DC800A
:1017100050B3E67008214846FFF7D2F8A0B326710F
:10172000BDE8F0876420FEF7C1FF20780028DBD1F8
:101730002878012804D198F80010491C88F8001076
:101740002770D1E76420FEF7B1FF60780028D1D17F
:101750002878012805D198F8000010B1401E88F8BB
:1017600000006770C6E700E00FE01420FEF79EFF60
:10177000A0780028C5D12878401CC0B22870032862
:1017800000D92F70A770BCE712E07820FEF78EFF1B
:10179000E0780028BED12878022805D198F80010FA
:1017A00021B1002188F80010E770B3E70121F9E7C3
:1017B0007820FEF77BFF20790028B1D12878022815
:1017C00009D10B48017831B10A490978012902D9B8
:1017D00088F8006006702771A2E700000000024050
:1017E0000C000020000000201C0000200100002050
:1017F00002000020030000202DE9F04186B01421F2
:101800006846FEF756FE39480024016841F004019D
:101810000160016801F004010591016841F0800157
:101820000160016801F080010591016841F001014A
:101830000160016801F001010591016841F00201B8
:101840000160016801F002010591016841F0400169
:101850000160016801F040010591016841F010014B
:1018600001600068224E00F010004FF40055059012
:10187000002229463046FFF730F81E4F00221E2175
:101880003846FFF72AF8DFF87080012211464046FB
:10189000FFF723F800950125CDE90154694630464C
:1018A0000394FEF715FF3C20CDE900046946134878
:1018B0000294FEF70DFF1E200090CDE90154694609
:1018C00038460394FEF704FF28038DE8310069468B
:1018D0000B48FEF7FDFE0095CDE9015469464046F0
:1018E0000394FEF7F5FE06B0BDE8F0813038024003
:1018F00000080240000402400010024000000240C4
:10190000001802400D4810B50B4901600C494160B8
:1019100000214FF480428160C0E90312416181617E
:10192000C1610162FEF7E4FF002803D0BDE810406A
:10193000FEF7BABE10BD0000005400403400002085
:10194000A08601000C4810B50A4901604FF4E1314E
:101950004160002181600C22C160C0E904128161F4
:10196000C161FFF795FC002803D0BDE81040FEF7E9
:101970009BBE10BD0010014088000020FEE7FEE77E
:1019800070B500240021204600F0D4F90025002085
:1019900000F05AFA6D1CEDB2802DF8D3641CE4B24D
:1019A000082CEFD370BD000030B4104D10492A78D8
:1019B0000878824208D00F4C0023224402F8013CF0
:1019C000221802F8013C2870012805D0022806D010
:1019D000032807D00120087030BC00F00DB830BCDF
:1019E00000F056B830BC00F0F5B80000140000203C
:1019F000000000201100002070B5164E164D174C47
:101A00003078A8B9FFF7BCFF012115A2084600F005
:101A1000F8F917A20321022000F0F3F916A2012120
:101A2000042000F0EEF9012030702878401E20706C
:101A30002878217888420CD014A20A21022000F0D4
:101A4000E0F903232A780A21022000F0B9F9287866
:101A5000207070BD110000200C0000200D0000203F
:101A60004D414E55414C20434F554E54000000000F
:101A700056414C55453A00003C202B20202D203E5D
:101A8000205041474520204155544F002020200040
:101A90002DE9F047384F394E394C7878394DDFF819
:101AA000E890DFF8E880DFF8E8A020BBFFF768FFE8
:101AB000012138A2084600F0A4F939A2032102202E
:101AC00000F09FF9032138A2084600F09AF938A2E5
:101AD0000221042000F095F9012078702078B8B137
:101AE000002030702878401E89F8000098F8000027
:101AF000401E8AF8000020783178884211D02FA249
:101B00000C21022000F07DF9207818B12DA202E00E
:101B10000120E6E72CA20C21022000F072F92078C7
:101B20003070287899F800104C4688420CD027A2D3
:101B30000A21032000F065F905232A780A210320F1
:101B400000F03EF92878207098F800009AF800100C
:101B50004546544688420CD01CA20B21042000F0BC
:101B600050F905232A780B21042000F029F9287860
:101B70002070BDE8F0870000110000200E0000205A
:101B800001000020020000200F00002003000020C0
:101B9000100000204155544F20434F554E54000033
:101BA0005354415455533A00434F554E543A000054
:101BB00054494D452873293A000000002020202078
:101BC000000000004F4E20004F46460020202020FD
:101BD000200000002DE9F041FEF784FE4FF47A71F9
:101BE000B0FBF1F41B4D1C4EA878A0B9FFF7C8FE5E
:101BF00001211AA2084600F004F91BA203210220C9
:101C000000F0FFF803211AA2084600F0FAF80120BC
:101C1000A870601E7060194D194F2A78387882427A
:101C200006D001230921022000F0CAF82878387074
:101C3000706884420BD013A20B21032000F0E1F85E
:101C4000052322460B21032000F0BAF87460BDE89A
:101C5000F08100001100002014000020535953545B
:101C6000454D20494E464F00504147453A0000003F
:101C700054494D452873293A000000000000002017
:101C80000D000020202020202000000010B564203E
:101C9000FEF70CFDAE2000F0C7F8D52000F0C4F828
:101CA000802000F0C1F8A82000F0BEF83F2000F02E
:101CB000BBF8D32000F0B8F8002000F0B5F84020C1
:101CC00000F0B2F8A12000F0AFF8C82000F0ACF8A6
:101CD000DA2000F0A9F8122000F0A6F8812000F028
:101CE000A3F8CF2000F0A0F8D92000F09DF8F12053
:101CF00000F09AF8DB2000F097F8302000F094F81C
:101D0000A42000F091F8A62000F08EF88D2000F0BD
:101D10008BF8142000F088F8AF2000F085F8BDE8BB
:101D20001040FFF72DBE0246012000E05043491E3F
:101D3000FCD2704710B50C4640F0B00000F074F8CB
:101D4000102040EA141000F06FF804F00F00BDE816
:101D5000104000F069B800002DE9F0410746CE00C0
:101D60004000083E801E15464FF0FF38F1B2C0B269
:101D7000FFF7E0FF1148002400EB05152819A0F536
:101D8000805090F8000E00F05FF8641CE4B2082C5C
:101D9000F4D308EB4700F1B2C0B2FFF7CBFF002449
:101DA0002819A0F5805090F8080E00F04DF8641C3A
:101DB000E4B2082CF4D3BDE8F08100002A22000828
:101DC0002DE9F04700241D461646884681460A271D
:101DD00013E0291B0A20491EFFF7A5FFB6FBF0F010
:101DE000B0FBF7F107FB110208EB0400C1B2484653
:101DF0003032FFF7B1FF641CE4B2AC42E9D3BDE876
:101E0000F0872DE9F04115460E460746002406E00E
:101E10003019C1B23846FFF79FFF641CE4B22A5D57
:101E2000002AF5D1BDE8F0811CB5002101918DF8A3
:101E3000050064200090022301AA78210148FEF7E2
:101E40001BFE1CBD340000201CB507A1022309683D
:101E500001918DF805006420009001AA78210348C3
:101E6000FEF70AFE1CBD0000400000003400002008
:101E700070477047FEF7CABE30B593B03021684650
:101E8000FEF717FB14210CA8FEF713FB1B480024D8
:101E9000016841F080510160006800F080501190AD
:101EA0001748016841F4804101600068022500F490
:101EB0008040119001200390102000950695049019
:101EC000CDE90740C020CDE9090504200B90684604
:101ED000FFF714F808B172B6FEE70F20CDE90C0544
:101EE0009020CDE90E0400210CA81094FEF71AFFF3
:101EF000002801D072B6FEE713B030BD4038024072
:101F0000007000400248016841F4700101607047B0
:101F100088ED00E001680C3151E8002F22F4907246
:101F200041E80023002BF5D10168143151E8002F5E
:101F300022F0010241E80023002BF5D1016B0129B9
:101F400009D101680C3151E8002F22F0100241E85C
:101F50000023002BF5D1202180F8421000210163DD
:101F60007047000070B5044600680169E26821F41A
:101F70004051114301612169A068E2690843616928
:101F8000114308432168CA6849F20C639A4302432B
:101F9000CA6020684169A26921F44071114341611E
:101FA00031492068884202D03049884202D1FEF788
:101FB00063FF01E0FEF750FFE26900231921642569
:101FC0003226B2F5004F626828D0A0FB0101930FC2
:101FD0009200FEF74DF90146B0FBF5F06FF01802E4
:101FE000504301EB800006EB0010B0FBF5F000F071
:101FF000F002B1FBF5F002EB0012B1FBF5F06FF06F
:102000001803584301EB800006EB0010B0FBF5F01D
:1020100000F00F0021681044886070BDA0FB010132
:1020200092185B41FEF724F90146B0FBF5F002017E
:10203000B1FBF5F06FF01803584301EB800006EB9D
:10204000C000B0FBF5F000F0F80002EB4002B1FB7D
:10205000F5F0584301EB800006EBC000B0FBF5F053
:1020600000F00700D6E70000001001400014014016
:102070002DE9F843984617460D460446089E24E08D
:10208000701C22D0FEF72EFCA0EB0800B0421AD83C
:10209000CEB12068C168490717D5802D15D0402DD5
:1020A00013D00168C94309070FD4016800254068AF
:1020B00000902046FFF72EFF0820606484F840500F
:1020C0000120BDE8F8830320FBE72068006835EABB
:1020D000000004D00020B842D2D00020F1E7012057
:1020E000F9E7FEE70907090E002804DB00F1E0200C
:1020F00080F80014704700F00F0000F1E02080F835
:10210000141D704788B0FEF789FDFFF7B5FEFFF795
:1021100073FBFFF7F7FBFFF715FCFFF7B7FDFFF7C2
:102120002FFC012130A20846FFF76BFE4FF47A75B1
:102130002846FEF7BBFAFEF7D5FB2F4E2F4C4FF08B
:10214000FF3700BFFEF798FAFFF7BEFA20780128A4
:102150001AD0002208213046FEF7BFFB2078022863
:1021600014D0002202213046FEF7B7FB2078032866
:102170000ED0002210213046FEF7AFFB6078F0B1A0
:10218000207802280CD01AE00122E3E70122E9E7D7
:1021900010213046FEF799FBFA20FEF787FAEDE7AB
:1021A000FEF7A0FBA168411AA94208D3A178491CF7
:1021B000A1702179411AB1FBF5F1E170A06063795A
:1021C0000FA21E216846FEF7CBF86846FEF752F9CB
:1021D00082B23B4669461148FFF7C2F8FFF7E4FBBD
:1021E0000A20FEF763FAADE753797374656D2052E8
:1021F00065616479000000000004024000000020D6
:102200006C6173745F636F756E745F74696D653A4A
:10221000202575206D730D0A000000008800002045
:102220004FF04070E1EE100A70470000000000001F
:1022300000000000000000000000000000F80000A6
:102240000000000000333000000000100C06100CED
:102250000600000000000000000040C07840C07888
:102260004000043F04043F040400007088FC083070
:102270000000001820FF211E0000F008F000E01808
:10228000000000211C031E211E0000F008887000C1
:1022900000001E2123241927211010160E00000013
:1022A00000000000000000000000000000E0180432
:1022B0000200000000071820400000020418E0009F
:1022C00000000040201807000000404080F08040DF
:1022D00040000202010F01020200000000F00000B5
:1022E00000000101011F01010100000000000000C9
:1022F000000080B07000000000000000000000003E
:1023000000000001010101010101000000000000C6
:10231000000000303000000000000000000080607D
:102320001804006018060100000000E01008081002
:10233000E000000F102020100F00001010F8000027
:1023400000000020203F20200000007008080888BE
:10235000700000302824222130000030088888488E
:1023600030000018202020110E000000C02010F8BE
:10237000000000070424243F240000F8088888088F
:1023800008000019212020110E0000E01088881894
:102390000000000F112020110E0000380808C83876
:1023A00008000000003F0000000000708808088856
:1023B0007000001C222121221C0000E010080810DF
:1023C000E0000000312222110F00000000C0C00018
:1023D000000000000030300000000000008000001D
:1023E000000000008060000000000000804020101D
:1023F0000800000102040810200040404040404016
:102400004000040404040404040000081020408078
:1024100000000020100804020100007048080808AD
:10242000F0000000003036010000C030C828E8107D
:10243000E0000718272423140B000000C038E00038
:102440000000203C23020227382008F88888887082
:102450000000203F202020110E00C030080808088E
:102460003800071820202010080008F80808081075
:10247000E000203F202020100F0008F88888E8089E
:102480001000203F20202320180008F88888E80842
:102490001000203F200003000000C030080808386A
:1024A000000007182020221E020008F8080000087B
:1024B000F808203F210101213F20000808F8080802
:1024C00000000020203F2020000000000808F8083D
:1024D0000800C08080807F00000008F888C02818AD
:1024E0000800203F20012638200008F808000000DE
:1024F0000000203F20202020300008F8F800F8F8E5
:102500000800203F003F003F200008F830C00008CE
:10251000F808203F200007183F00E01008080810C6
:10252000E0000F10202020100F0008F8080808080D
:10253000F000203F210101010000E0100808081010
:10254000E0000F18242438504F0008F88888888845
:102550007000203F2000030C30200070880808081D
:1025600038000038202121221C00180808F808082B
:1025700018000000203F2000000008F808000008B4
:10258000F808001F202020201F000878880000C8BD
:102590003808000007380E010000F80800F80008AD
:1025A000F800033C0700073C0300081868808068B7
:1025B000180820302C03032C30200838C800C838F5
:1025C00008000000203F2000000010080808C8385C
:1025D00008002038262120201800000000FE0202FA
:1025E00002000000007F40404000000C30C00000AE
:1025F0000000000000010638C00000020202FE00D8
:102600000000004040407F00000000000402020281
:1026100004000000000000000000000000000000B6
:1026200000008080808080808080000202040000A2
:10263000000000000000000000000000808080809A
:1026400000000019242222223F2008F80080800088
:102650000000003F112020110E000000008080804B
:102660000000000E11202020110000000080808852
:10267000F800000E112020103F2000008080808094
:102680000000001F222222221300008080F0888890
:1026900088180020203F20200000000080808080DB
:1026A0008000006B94949493600008F80080808010
:1026B0000000203F210000203F200080989800006B
:1026C00000000020203F202000000000008098989B
:1026D000000000C08080807F000008F8000080803B
:1026E0008000203F24022D302000000808F8000060
:1026F00000000020203F202000008080808080801B
:102700008000203F20003F20003F808000808080AC
:102710000000203F210000203F20000080808080BA
:102720000000001F202020201F00808000808000EB
:10273000000080FFA12020110E000000008080809A
:102740008000000E112020A0FF808080800080800B
:10275000800020203F212000010000008080808038
:1027600080000033242424241900008080E080802D
:1027700000000000001F202000008080000000807A
:102780008000001F202020103F20808080000080DB
:10279000808000010E3008060100808000800080EB
:1027A00080800F300C030C300F0000808000808090
:1027B00080000020312E0E312000808080000080BB
:1027C000808080818E70180601000080808080806B
:1027D00080000021302C2221300000000000807C8D
:1027E000020200000000003F404000000000FF0027
:1027F000000000000000FF0000000002027C8000DA
:1028000000000040403F00000000000601010202FD
:1028100004040000000000000000000000000000B0
:10282000000001020304060708090000000001027D
:1028300003040000542800080000002034000000B9
:10284000C40100088828000834000020FC060000AD
:10285000E00100080100000000000000000000008E
:102860000000000000000000000000000000000068
:102870000000000000000000010000001000000047
:08288000000000000024F40038
:040000050800018965
:00000001FF
